{
  "abi": [
    {
      "inputs": [
        {
          "internalType": "address",
          "name": "adapter",
          "type": "address"
        }
      ],
      "stateMutability": "nonpayable",
      "type": "constructor"
    },
    {
      "inputs": [
        {
          "internalType": "uint256",
          "name": "have",
          "type": "uint256"
        },
        {
          "internalType": "uint32",
          "name": "want",
          "type": "uint32"
        }
      ],
      "name": "GasLimitTooBig",
      "type": "error"
    },
    {
      "anonymous": false,
      "inputs": [
        {
          "indexed": true,
          "internalType": "address",
          "name": "previousOwner",
          "type": "address"
        },
        {
          "indexed": true,
          "internalType": "address",
          "name": "newOwner",
          "type": "address"
        }
      ],
      "name": "OwnershipTransferred",
      "type": "event"
    },
    {
      "anonymous": false,
      "inputs": [
        {
          "indexed": false,
          "internalType": "uint256[]",
          "name": "shuffleArray",
          "type": "uint256[]"
        },
        {
          "indexed": false,
          "internalType": "uint256[]",
          "name": "batchDirection",
          "type": "uint256[]"
        }
      ],
      "name": "shunffleTarot",
      "type": "event"
    },
    {
      "inputs": [],
      "name": "adapter",
      "outputs": [
        {
          "internalType": "address",
          "name": "",
          "type": "address"
        }
      ],
      "stateMutability": "view",
      "type": "function"
    },
    {
      "inputs": [],
      "name": "callbackGasLimit",
      "outputs": [
        {
          "internalType": "uint32",
          "name": "",
          "type": "uint32"
        }
      ],
      "stateMutability": "view",
      "type": "function"
    },
    {
      "inputs": [],
      "name": "callbackMaxGasFee",
      "outputs": [
        {
          "internalType": "uint256",
          "name": "",
          "type": "uint256"
        }
      ],
      "stateMutability": "view",
      "type": "function"
    },
    {
      "inputs": [
        {
          "internalType": "uint64",
          "name": "subId",
          "type": "uint64"
        }
      ],
      "name": "getNonce",
      "outputs": [
        {
          "internalType": "uint256",
          "name": "",
          "type": "uint256"
        }
      ],
      "stateMutability": "view",
      "type": "function"
    },
    {
      "inputs": [],
      "name": "getShuffledCards",
      "outputs": [
        {
          "internalType": "bytes32",
          "name": "",
          "type": "bytes32"
        }
      ],
      "stateMutability": "nonpayable",
      "type": "function"
    },
    {
      "inputs": [],
      "name": "lengthOfShuffleResults",
      "outputs": [
        {
          "internalType": "uint256",
          "name": "",
          "type": "uint256"
        }
      ],
      "stateMutability": "view",
      "type": "function"
    },
    {
      "inputs": [],
      "name": "owner",
      "outputs": [
        {
          "internalType": "address",
          "name": "",
          "type": "address"
        }
      ],
      "stateMutability": "view",
      "type": "function"
    },
    {
      "inputs": [
        {
          "internalType": "bytes32",
          "name": "",
          "type": "bytes32"
        }
      ],
      "name": "randomResults",
      "outputs": [
        {
          "internalType": "uint256",
          "name": "",
          "type": "uint256"
        }
      ],
      "stateMutability": "view",
      "type": "function"
    },
    {
      "inputs": [
        {
          "internalType": "bytes32",
          "name": "requestId",
          "type": "bytes32"
        },
        {
          "internalType": "uint256[]",
          "name": "randomWords",
          "type": "uint256[]"
        }
      ],
      "name": "rawFulfillRandomWords",
      "outputs": [],
      "stateMutability": "nonpayable",
      "type": "function"
    },
    {
      "inputs": [
        {
          "internalType": "bytes32",
          "name": "requestId",
          "type": "bytes32"
        },
        {
          "internalType": "uint256",
          "name": "randomness",
          "type": "uint256"
        }
      ],
      "name": "rawFulfillRandomness",
      "outputs": [],
      "stateMutability": "nonpayable",
      "type": "function"
    },
    {
      "inputs": [
        {
          "internalType": "bytes32",
          "name": "requestId",
          "type": "bytes32"
        },
        {
          "internalType": "uint256[]",
          "name": "shuffledArray",
          "type": "uint256[]"
        }
      ],
      "name": "rawFulfillShuffledArray",
      "outputs": [],
      "stateMutability": "nonpayable",
      "type": "function"
    },
    {
      "inputs": [],
      "name": "renounceOwnership",
      "outputs": [],
      "stateMutability": "nonpayable",
      "type": "function"
    },
    {
      "inputs": [],
      "name": "requestConfirmations",
      "outputs": [
        {
          "internalType": "uint16",
          "name": "",
          "type": "uint16"
        }
      ],
      "stateMutability": "view",
      "type": "function"
    },
    {
      "inputs": [
        {
          "internalType": "address",
          "name": "to",
          "type": "address"
        },
        {
          "internalType": "uint256",
          "name": "value",
          "type": "uint256"
        },
        {
          "internalType": "bytes",
          "name": "data",
          "type": "bytes"
        }
      ],
      "name": "requiredTxGas",
      "outputs": [
        {
          "internalType": "uint256",
          "name": "",
          "type": "uint256"
        }
      ],
      "stateMutability": "nonpayable",
      "type": "function"
    },
    {
      "inputs": [
        {
          "internalType": "uint32",
          "name": "_callbackGasLimit",
          "type": "uint32"
        },
        {
          "internalType": "uint256",
          "name": "_callbackMaxGasFee",
          "type": "uint256"
        }
      ],
      "name": "setCallbackGasConfig",
      "outputs": [],
      "stateMutability": "nonpayable",
      "type": "function"
    },
    {
      "inputs": [
        {
          "internalType": "uint16",
          "name": "_requestConfirmations",
          "type": "uint16"
        }
      ],
      "name": "setRequestConfirmations",
      "outputs": [],
      "stateMutability": "nonpayable",
      "type": "function"
    },
    {
      "inputs": [
        {
          "internalType": "uint256",
          "name": "",
          "type": "uint256"
        }
      ],
      "name": "shuffleResults",
      "outputs": [
        {
          "internalType": "uint256",
          "name": "",
          "type": "uint256"
        }
      ],
      "stateMutability": "view",
      "type": "function"
    },
    {
      "inputs": [
        {
          "internalType": "address",
          "name": "newOwner",
          "type": "address"
        }
      ],
      "name": "transferOwnership",
      "outputs": [],
      "stateMutability": "nonpayable",
      "type": "function"
    }
  ],
  "bytecode": {
    "object": "0x60a060405234801561001057600080fd5b5060405162001b8938038062001b89833981016040819052610031916100a7565b6001600160a01b0381166080526100473361004d565b506100d7565b600180546001600160a01b03838116610100818102610100600160a81b031985161790945560405193909204169182907f8be0079c531659141344cd1fd0a4f28419497f9722a3daafe3b4186f6b6457e090600090a35050565b6000602082840312156100b957600080fd5b81516001600160a01b03811681146100d057600080fd5b9392505050565b608051611a736200011660003960008181610120015281816103010152818161041c0152818161071e015281816107f201526111dc0152611a736000f3fe608060405234801561001057600080fd5b50600436106101165760003560e01c806394985ddd116100a25780639e5836f6116100715780639e5836f6146101bf5780639f15c78514610244578063b0fb162f14610257578063d88edee914610278578063f2fde38b1461029857600080fd5b806394985ddd1461020e57806396de346e1461022157806398b4f289146102345780639d7951611461023c57600080fd5b8063715018a6116100e9578063715018a6146101b557806375bf929b146101bf5780638824f5a7146101d25780638acd01a0146101e55780638da5cb5b146101f857600080fd5b806303eadcfc1461011b57806317f768c51461015f5780631b45cd0d1461017657806324f7469714610189575b600080fd5b6101427f000000000000000000000000000000000000000000000000000000000000000081565b6040516001600160a01b0390911681526020015b60405180910390f35b61016860025481565b604051908152602001610156565b61016861018436600461136f565b6102ab565b6001546101a090600160a81b900463ffffffff1681565b60405163ffffffff9091168152602001610156565b6101bd6102d6565b005b6101bd6101cd3660046113da565b6102ea565b6101bd6101e036600461149c565b610378565b6101bd6101f33660046114cb565b610398565b60015461010090046001600160a01b0316610142565b6101bd61021c3660046114f7565b610405565b61016861022f366004611519565b610494565b600554610168565b6101686104b5565b61016861025236600461154e565b6104ca565b6003546102659061ffff1681565b60405161ffff9091168152602001610156565b610168610286366004611519565b60046020526000908152604090205481565b6101bd6102a63660046115d5565b610550565b67ffffffffffffffff81166000908152602081905260408120546102d0906001611606565b92915050565b6102de6105c9565b6102e86000610629565b565b60015460ff16806103235750336001600160a01b037f000000000000000000000000000000000000000000000000000000000000000016145b6103745760405162461bcd60e51b815260206004820152601860248201527f4f6e6c7920616461707465722063616e2066756c66696c6c000000000000000060448201526064015b60405180910390fd5b5050565b6103806105c9565b6003805461ffff191661ffff92909216919091179055565b6103a06105c9565b621e848063ffffffff831611156103db57604051631fbf681360e31b815263ffffffff83166004820152621e8480602482015260440161036b565b6001805463ffffffff909316600160a81b0263ffffffff60a81b1990931692909217909155600255565b60015460ff168061043e5750336001600160a01b037f000000000000000000000000000000000000000000000000000000000000000016145b61048a5760405162461bcd60e51b815260206004820152601860248201527f4f6e6c7920616461707465722063616e2066756c66696c6c0000000000000000604482015260640161036b565b6103748282610690565b600581815481106104a457600080fd5b600091825260209091200154905081565b600060606104c46000826106fc565b91505090565b6000805a9050610511868686868080601f0160208091040260200160405190810160405280939291908181526020018383808284376000920191909152505050505a6108e7565b61051a57600080fd5b60005a6105279083611619565b90506000610534826108ff565b90508060405162461bcd60e51b815260040161036b919061167c565b6105586105c9565b6001600160a01b0381166105bd5760405162461bcd60e51b815260206004820152602660248201527f4f776e61626c653a206e6577206f776e657220697320746865207a65726f206160448201526564647265737360d01b606482015260840161036b565b6105c681610629565b50565b6001546001600160a01b036101009091041633146102e85760405162461bcd60e51b815260206004820181905260248201527f4f776e61626c653a2063616c6c6572206973206e6f7420746865206f776e6572604482015260640161036b565b600180546001600160a01b0383811661010081810274ffffffffffffffffffffffffffffffffffffffff001985161790945560405193909204169182907f8be0079c531659141344cd1fd0a4f28419497f9722a3daafe3b4186f6b6457e090600090a35050565b60008281526004602052604081208290556106ac604e83610a5a565b905060006106bb83604e610bb6565b90507fd546a7f794d38fabe38bc9b6c54ce84d722e8d117013e6977069bdaf4d2956e182826040516106ee9291906116ca565b60405180910390a150505050565b604051631daa446f60e21b815230600482015260009081906001600160a01b037f000000000000000000000000000000000000000000000000000000000000000016906376a911bc90602401602060405180830381865afa158015610765573d6000803e3d6000fd5b505050506040513d601f19601f8201168201806040525081019061078991906116f8565b600154909150600160a81b900463ffffffff166000036107e05760006107b0858584610c6c565b90506107be61753082611715565b600160156101000a81548163ffffffff021916908363ffffffff160217905550505b60035461ffff166000036108915760007f00000000000000000000000000000000000000000000000000000000000000006001600160a01b031663ef6f42736040518163ffffffff1660e01b815260040160e060405180830381865afa15801561084e573d6000803e3d6000fd5b505050506040513d601f19601f820116820180604052508101906108729190611739565b50506003805461ffff191661ffff969096169590951790945550505050505b6108df8484836000600360009054906101000a900461ffff16600160159054906101000a900463ffffffff166002546000146108cf5760025461114b565b6108da3a60036117b7565b61114b565b949350505050565b6000806000845160208601878987f195945050505050565b60408051606480825260a08201909252606091906000908260208201818036833701905050905060005b841561099357600061093c600a876117e4565b9050610949600a876117f8565b9550610956816030611606565b60f81b83836109648161180c565b94508151811061097657610976611825565b60200101906001600160f81b031916908160001a90535050610929565b60006109a0826001611606565b67ffffffffffffffff8111156109b8576109b8611393565b6040519080825280601f01601f1916602001820160405280156109e2576020820181803683370190505b50905060005b828111610a5057836109fa8285611619565b81518110610a0a57610a0a611825565b602001015160f81c60f81b828281518110610a2757610a27611825565b60200101906001600160f81b031916908160001a90535080610a488161180c565b9150506109e8565b5095945050505050565b606060008367ffffffffffffffff811115610a7757610a77611393565b604051908082528060200260200182016040528015610aa0578160200160208202803683370190505b50905060005b84811015610ade5780828281518110610ac157610ac1611825565b602090810291909101015280610ad68161180c565b915050610aa6565b5080516000805b6000610af08461183b565b9350831115610bab57610b0383876117e4565b915085604051602001610b1891815260200190565b6040516020818303038152906040528051906020012060001c9550838381518110610b4557610b45611825565b60200260200101519050838281518110610b6157610b61611825565b6020026020010151848481518110610b7b57610b7b611825565b60200260200101818152505080848381518110610b9a57610b9a611825565b602002602001018181525050610ae5565b509195945050505050565b606060008267ffffffffffffffff811115610bd357610bd3611393565b604051908082528060200260200182016040528015610bfc578160200160208202803683370190505b50905060005b83811015610c645760408051602081018790529081018290526060016040516020818303038152906040528051906020012060001c828281518110610c4957610c49611825565b6020908102919091010152610c5d8161180c565b9050610c02565b509392505050565b6001805460ff191681179055600080610ce7818433610c8a826102ab565b6040805146602082015290810185905267ffffffffffffffff841660608201526001600160a01b038316608082015260a0810182905260009060c00160408051601f19818403018152919052805160209091012095945050505050565b90506000610cf482611276565b905060606000876002811115610d0c57610d0c611852565b03610d78575060408051602481018390527fe5c171541b9a43bf39a8e387606b82493eb141ea04772ea12d8e1aa1e52601006044808301919091528251808303909101815260649091019091526020810180516001600160e01b03166394985ddd60e01b179052610fee565b6001876002811115610d8c57610d8c611852565b03610edb57600086806020019051810190610da79190611868565b905060008163ffffffff1667ffffffffffffffff811115610dca57610dca611393565b604051908082528060200260200182016040528015610df3578160200160208202803683370190505b50905060005b8263ffffffff16811015610e8257604080517fe5c171541b9a43bf39a8e387606b82493eb141ea04772ea12d8e1aa1e526010060208201529081018290526060016040516020818303038152906040528051906020012060001c828281518110610e6557610e65611825565b602090810291909101015280610e7a8161180c565b915050610df9565b506040516375bf929b60e01b90610e9f9086908490602401611885565b60408051601f198184030181529190526020810180516001600160e01b03166001600160e01b0319909316929092179091529250610fee915050565b6002876002811115610eef57610eef611852565b03610fee57600086806020019051810190610f0a9190611868565b905060008163ffffffff1667ffffffffffffffff811115610f2d57610f2d611393565b604051908082528060200260200182016040528015610f56578160200160208202803683370190505b50905060005b8263ffffffff16811015610f9a5780828281518110610f7d57610f7d611825565b602090810291909101015280610f928161180c565b915050610f5c565b50604051634f2c1b7b60e11b90610fb79086908490602401611885565b60408051601f198184030181529190526020810180516001600160e01b03166001600160e01b031990931692909217909152925050505b600080306001600160a01b0316639f15c78560e01b306000866040516024016110199392919061189e565b60408051601f198184030181529181526020820180516001600160e01b03166001600160e01b031990941693909317909252905161105791906118c9565b6000604051808303816000865af19150503d8060008114611094576040519150601f19603f3d011682016040523d82523d6000602084013e611099565b606091505b509150915060006110a9826112a8565b9050621e84808111156110db57604051631fbf681360e31b815260048101829052621e8480602482015260440161036b565b821580156110e857508015155b6111345760405162461bcd60e51b815260206004820181905260248201527f66756c66696c6c52616e646f6d6e657373206472792d72756e206661696c6564604482015260640161036b565b6001805460ff191690559998505050505050505050565b67ffffffffffffffff851660009081526020819052604081208054600191908390611177908490611606565b9250508190555060006040518060e001604052808a600281111561119d5761119d611852565b81526020018981526020018867ffffffffffffffff1681526020018781526020018661ffff1681526020018563ffffffff1681526020018481525090507f00000000000000000000000000000000000000000000000000000000000000006001600160a01b031663a39402d7826040518263ffffffff1660e01b815260040161122691906118e5565b6020604051808303816000875af1158015611245573d6000803e3d6000fd5b505050506040513d601f19601f820116820180604052508101906112699190611990565b9998505050505050505050565b60008160405160200161128b91815260200190565b604051602081830303815290604052805190602001209050919050565b60006044825110156112bc57506000919050565b6004820191506102d0828060200190518101906112d991906119a9565b600081815b81518110156113525760008282815181106112fb576112fb611825565b016020015160f81c905060308110801590611317575060398111155b1561133f57611327603082611619565b61133285600a6117b7565b61133c9190611606565b93505b508061134a8161180c565b9150506112de565b5050919050565b67ffffffffffffffff811681146105c657600080fd5b60006020828403121561138157600080fd5b813561138c81611359565b9392505050565b634e487b7160e01b600052604160045260246000fd5b604051601f8201601f1916810167ffffffffffffffff811182821017156113d2576113d2611393565b604052919050565b600080604083850312156113ed57600080fd5b8235915060208084013567ffffffffffffffff8082111561140d57600080fd5b818601915086601f83011261142157600080fd5b81358181111561143357611433611393565b8060051b91506114448483016113a9565b818152918301840191848101908984111561145e57600080fd5b938501935b8385101561147c57843582529385019390850190611463565b8096505050505050509250929050565b61ffff811681146105c657600080fd5b6000602082840312156114ae57600080fd5b813561138c8161148c565b63ffffffff811681146105c657600080fd5b600080604083850312156114de57600080fd5b82356114e9816114b9565b946020939093013593505050565b6000806040838503121561150a57600080fd5b50508035926020909101359150565b60006020828403121561152b57600080fd5b5035919050565b80356001600160a01b038116811461154957600080fd5b919050565b6000806000806060858703121561156457600080fd5b61156d85611532565b935060208501359250604085013567ffffffffffffffff8082111561159157600080fd5b818701915087601f8301126115a557600080fd5b8135818111156115b457600080fd5b8860208285010111156115c657600080fd5b95989497505060200194505050565b6000602082840312156115e757600080fd5b61138c82611532565b634e487b7160e01b600052601160045260246000fd5b808201808211156102d0576102d06115f0565b818103818111156102d0576102d06115f0565b60005b8381101561164757818101518382015260200161162f565b50506000910152565b6000815180845261166881602086016020860161162c565b601f01601f19169290920160200192915050565b60208152600061138c6020830184611650565b600081518084526020808501945080840160005b838110156116bf578151875295820195908201906001016116a3565b509495945050505050565b6040815260006116dd604083018561168f565b82810360208401526116ef818561168f565b95945050505050565b60006020828403121561170a57600080fd5b815161138c81611359565b63ffffffff818116838216019080821115611732576117326115f0565b5092915050565b600080600080600080600060e0888a03121561175457600080fd5b875161175f8161148c565b6020890151909750611770816114b9565b6040890151909650611781816114b9565b6060890151909550611792816114b9565b809450506080880151925060a0880151915060c0880151905092959891949750929550565b80820281158282048414176102d0576102d06115f0565b634e487b7160e01b600052601260045260246000fd5b6000826117f3576117f36117ce565b500690565b600082611807576118076117ce565b500490565b60006001820161181e5761181e6115f0565b5060010190565b634e487b7160e01b600052603260045260246000fd5b60008161184a5761184a6115f0565b506000190190565b634e487b7160e01b600052602160045260246000fd5b60006020828403121561187a57600080fd5b815161138c816114b9565b8281526040602082015260006108df604083018461168f565b6001600160a01b038416815260ff831660208201526060604082015260006116ef6060830184611650565b600082516118db81846020870161162c565b9190910192915050565b60208152600082516003811061190b57634e487b7160e01b600052602160045260246000fd5b80602084015250602083015160e0604084015261192c610100840182611650565b90506040840151611949606085018267ffffffffffffffff169052565b5060608401516080840152608084015161196960a085018261ffff169052565b5060a084015163ffffffff811660c08501525060c084015160e08401528091505092915050565b6000602082840312156119a257600080fd5b5051919050565b6000602082840312156119bb57600080fd5b815167ffffffffffffffff808211156119d357600080fd5b818401915084601f8301126119e757600080fd5b8151818111156119f9576119f9611393565b611a0c601f8201601f19166020016113a9565b9150808252856020828501011115611a2357600080fd5b611a3481602084016020860161162c565b5094935050505056fea2646970667358221220ef4ba5535b57fef1abc19a6bd58b0590b35f1fd6da00e7003d504df0776b3ce864736f6c63430008120033",
    "linkReferences": {}
  },
  "methodIdentifiers": {
    "adapter()": "03eadcfc",
    "callbackGasLimit()": "24f74697",
    "callbackMaxGasFee()": "17f768c5",
    "getNonce(uint64)": "1b45cd0d",
    "getShuffledCards()": "9d795161",
    "lengthOfShuffleResults()": "98b4f289",
    "owner()": "8da5cb5b",
    "randomResults(bytes32)": "d88edee9",
    "rawFulfillRandomWords(bytes32,uint256[])": "75bf929b",
    "rawFulfillRandomness(bytes32,uint256)": "94985ddd",
    "rawFulfillShuffledArray(bytes32,uint256[])": "9e5836f6",
    "renounceOwnership()": "715018a6",
    "requestConfirmations()": "b0fb162f",
    "requiredTxGas(address,uint256,bytes)": "9f15c785",
    "setCallbackGasConfig(uint32,uint256)": "8acd01a0",
    "setRequestConfirmations(uint16)": "8824f5a7",
    "shuffleResults(uint256)": "96de346e",
    "transferOwnership(address)": "f2fde38b"
  },
  "id": 9
}